:100000004DC200006CC200006AC2000068C200005D
:1000100066C2000064C2000062C2000060C200004C
:100020005EC200005CC200005AC2000058C200005C
:1000300056C2000054C200000C94FD0E0C942A0F0E
:100040000C94570F0C94840F0C94B10F0C94DE0F8A
:100050000C940B100C9438100C9465100C949210A6
:100060003EC200003CC200003AC2000038C200009C
:1000700036C2000034C2000032C2000030C20000AC
:100080002EC200002CC200002AC2000028C20000BC
:1000900026C2000024C2000022C200000C94220BE1
:1000A0000C94540B0C94860B0C94B80B18C20000E3
:1000B00016C2000014C2000012C200000C9481128B
:1000C0000C94AE120C94DB120C9408130C943513A0
:1000D0000C9462130C948F130C94BC130C94E913BE
:1000E0000C941614FCC10000FAC10000F8C1000015
:1000F000F6C10000F4C10000F2C10000F0C1000030
:10010000EEC10000ECC10000EAC10000E8C100003F
:10011000E6C10000E4C10000E2C100000C945A0AEC
:100120000C948C0A0C94BE0A0C94F00AD8C10000FE
:10013000D6C100000C94BF100C94EC100C94191153
:100140000C9446110C9473110C94A0110C94CD11C5
:100150000C94FA110C9427120C945412C0C1000094
:10016000BEC10000BCC10000BAC10000B8C100009F
:10017000B6C10000B4C10000B2C10000B0C10000AF
:10018000AEC10000ACC10000AAC10000A8C10000BF
:10019000A6C10000A4C10000A2C10000A0C10000CF
:1001A0009EC100009CC100009AC1000098C10000DF
:1001B0000C9443140C9470140C949D140C94CA1455
:1001C0000C94F7140C9424158AC1000088C1000017
:1001D00086C1000084C1000082C1000080C100000F
:1001E0007EC100007CC100007AC1000078C100001F
:1001F00076C1000074C1000072C100003C164F16A9
:100200006216751688169B16AE16000000000000D8
:1002100000202020202000205050500000000050DE
:1002200050F850F850502078A07028F020C0C81026
:10023000204098186090A040A8906860204000007E
:10024000000010204040402010402010101020409E
:10025000005020F8205000002020F820200000004E
:100260000000602040000000F800000000000000D6
:1002700000606000081020408000708898A8C8883E
:100280007020602020202070708808102040F8F82E
:1002900010201008887010305090F81010F880F07E
:1002A00008088870304080F0888870F80810204076
:1002B00040407088887088887070888878081060DE
:1002C0000060600060600000606000602040081016
:1002D00020402010080000F800F8000080402010A6
:1002E0002040807088081020002070880868A8A826
:1002F0007070888888F88888F08888F08888F0701E
:10030000888080808870E09088888890E0F880807D
:10031000F08080F8F88080E080808070888080980D
:100320008870888888F8888888702020202020702D
:10033000381010101090608890A0C0A09088808025
:1003400080808080F888D8A8888888888888C8A80D
:1003500098888870888888888870F08888F080807D
:100360008070888888A89068F08888F0A090887845
:100370008080700808F0F8202020202020888888BD
:100380008888887088888888885020888888A8A865
:10039000D88888885020508888888850202020203D
:1003A000F80810204080F8382020202020380080D5
:1003B0004020100800E02020202020E0205088006D
:1003C000000000000000000000F8402010000000C5
:1003D00000000070087888788080B0C88888F000B5
:1003E000007080808870080868988888780000709D
:1003F00088F88070304840E04040400000788878BD
:1004000008308080B0C88888882000602020207054
:1004100010003010109060404048506050486020FC
:1004200020202020700000D0A8A888880000B0C834
:10043000888888000070888888700000F088F080C4
:1004400080000068987808080000B0C880808000AC
:100450000070807008F04040E04040483000008864
:10046000888898680000888888502000008888A8BC
:10047000A8500000885020508800008888780870B4
:100480000000F8102040F8102020402020102020EC
:1004900020202020204020201020204011241FBE9A
:1004A000CFEFCDBFDFE5DEBF00E00CBF10E2A0E084
:1004B000B0E2E0E8FCE300E00BBF02C007900D9261
:1004C000AA34B107D9F722E2AAE4B0E201C01D9232
:1004D000A83CB207E1F70E94DB180C943E1E90CDB9
:1004E00004C0615071098109910961157105810587
:1004F0009105B9F70895BF92CF92DF92EF92FF92E4
:100500000F931F93CF93DF931F92CDB7DEB700E019
:1005100016E06894FF24F3F8F801F68264E070E0D6
:1005200080E090E0DDDFF801F58264E070E080E0DB
:1005300090E0D6DF0F2EFBE2BF2EF02DB98280EACD
:1005400099E00E94230DC12CD12C760100E412E425
:100550002FE030E043E0BE016F5F7F4F80EA99E01B
:100560000E94520D00E616E0FF24F394F801F68293
:10057000B982BE016F5F7F4F80EA99E00E946C0DE7
:10058000F801F682E0EAF9E0818185FFFDCF80EA9B
:100590008093A009E0EAF9E0818186FFFDCFE0EADF
:1005A000F9E080E481838081BE016F5F7F4F80EA44
:1005B00099E00E94820D8BE28983BE016F5F7F4FBD
:1005C00080EA99E00E946C0D81E080936606E0EA83
:1005D000F9E0818185FFFDCF86EA8093A009E0EAFA
:1005E000F9E0818186FFFDCFE0EAF9E080E48183D4
:1005F0008081BE016F5F7F4F80EA99E00E94820D8B
:100600008BE28983BE016F5F7F4F80EA99E00E9491
:100610006C0D81E080936606E0EAF9E0818185FF58
:10062000FDCF88EC8093A009E0EAF9E0818186FFA4
:10063000FDCFE0EAF9E080E481838081BE016F5F55
:100640007F4F80EA99E00E94820D8BE28983BE0190
:100650006F5F7F4F80EA99E00E946C0D81E080938C
:100660006606E0EAF9E0818185FFFDCF82EA8093AA
:10067000A009E0EAF9E0818186FFFDCFE0EAF9E038
:1006800080E481838081BE016F5F7F4F80EA99E0C3
:100690000E94820D8BE28983BE016F5F7F4F80EAEB
:1006A00099E00E946C0D81E080936606E0EAF9E033
:1006B000818185FFFDCF8FE28093A009E0EAF9E018
:1006C000818186FFFDCFE0EAF9E080E481838081CB
:1006D000BE016F5F7F4F80EA99E00E94820D8BE23E
:1006E0008983BE016F5F7F4F80EA99E00E946C0DA5
:1006F00081E080936606E0EAF9E0818185FFFDCF25
:1007000088EF8093A009E0EAF9E0818186FFFDCFC0
:10071000E0EAF9E080E481838081BE016F5F7F4F72
:1007200080EA99E00E94820D8BE28983BE016F5FAF
:100730007F4F80EA99E00E946C0D81E0809366060D
:10074000E0EAF9E0818185FFFDCF1092A009E0EA9F
:10075000F9E0818186FFFDCFE0EAF9E080E4818362
:100760008081BE016F5F7F4F80EA99E00E94820D19
:100770008BE28983BE016F5F7F4F80EA99E00E9420
:100780006C0D81E080936606E0EAF9E0818185FFE7
:10079000FDCF81E28093A009E0EAF9E0818186FF44
:1007A000FDCFE0EAF9E080E481838081BE016F5FE4
:1007B0007F4F80EA99E00E94820D8BE28983BE011F
:1007C0006F5F7F4F80EA99E00E946C0D81E080931B
:1007D0006606E0EAF9E0818185FFFDCF81E880933C
:1007E000A009E0EAF9E0818186FFFDCFE0EAF9E0C7
:1007F00080E481838081BE016F5F7F4F80EA99E052
:100800000E94820D8BE28983BE016F5F7F4F80EA79
:1008100099E00E946C0D81E080936606E0EAF9E0C1
:10082000818185FFFDCF81E28093A009E0EAF9E0B4
:10083000818186FFFDCFE0EAF9E080E48183808159
:10084000BE016F5F7F4F80EA99E00E94820D8BE2CC
:100850008983BE016F5F7F4F80EA99E00E946C0D33
:1008600081E080936606E0EAF9E0818185FFFDCFB3
:100870008FEA8093A009E0EAF9E0818186FFFDCF4D
:10088000E0EAF9E080E481838081BE016F5F7F4F01
:1008900080EA99E00E94820D0F90DF91CF911F9125
:1008A0000F91FF90EF90DF90CF90BF900895FF924F
:1008B0000F931F93CF93DF931F92CDB7DEB7082F0F
:1008C000F62E142F0E949D0D0F70006B8BE2898312
:1008D000BE016F5F7F4F80EA99E00E946C0D81E05E
:1008E00080936606E0EAF9E0918195FFFDCF0093E1
:1008F000A009E0EAF9E0818186FFFDCFE0EAF9E0B6
:1009000080E481838081BE016F5F7F4F80EA99E040
:100910000E94820D0F2D0F7702950F7000618BE200
:100920008983BE016F5F7F4F80EA99E00E946C0D62
:1009300081E080936606E0EAF9E0818185FFFDCFE2
:100940000093A009E0EAF9E0818186FFFDCFE0EAAB
:10095000F9E080E481838081BE016F5F7F4F80EA90
:1009600099E00E94820D0F2D0F708BE28983BE01EA
:100970006F5F7F4F80EA99E00E946C0D81E0809369
:100980006606E0EAF9E0818185FFFDCF0093A009CA
:10099000E0EAF9E0818186FFFDCFE0EAF9E080E45A
:1009A00081838081BE016F5F7F4F80EA99E00E9462
:1009B000820D8BE28983BE016F5F7F4F80EA99E0F1
:1009C0000E946C0D81E080936506E0EAF9E0818188
:1009D00085FFFDCF1093A009E0EAF9E0818186FF51
:1009E000FDCFE0EAF9E080E48183808181E08093BB
:1009F0006606BE016F5F7F4F80EA99E00E94820D1C
:100A00000F90DF91CF911F910F91FF9008950F9359
:100A10001F93CF93DF931F92CDB7DEB78AE490E2A6
:100A20000E94980D68DD8BE28983BE016F5F7F4F66
:100A300080EA99E00E946C0D81E080936606E0EA0E
:100A4000F9E0818185FFFDCF80E48093A009E0EA91
:100A5000F9E0818186FFFDCFE0EAF9E080E481835F
:100A60008081BE016F5F7F4F80EA99E00E94820D16
:100A700000E00AC040E0612F802F19DF1F5F1038AF
:100A8000C9F70F5F043011F010E0F4CF0F90DF9141
:100A9000CF911F910F910895FF920F931F93CF93C2
:100AA000DF93882354F1603240F5D42FC82FF62EFF
:100AB000F694F694F69470E088E0F89E6019710957
:100AC000112481E090E08C0102C0000F111F6A9593
:100AD000E2F76C2F8F2D0E94AB0DD13021F028F062
:100AE000D23031F006C0802B04C00095802301C0B5
:100AF0008027482F6C2F8F2DDADEDF91CF911F9149
:100B00000F91FF9008950C94AB0D0895CF93DF9350
:100B10001F92CDB7DEB72FB72983F8944981282FCC
:100B2000392F211582E0380729F4609398227093B9
:100B3000992207C02034324021F4609396227093AA
:100B400097224FBF0F90DF91CF910895811522E03A
:100B5000920769F480914B2291E0980F90934B2279
:100B6000811114C062E081E00C944B0E0895803432
:100B7000924061F480914A2291E0980F90934A222A
:100B8000811104C062E082E00C944B0E089581153F
:100B900022E0920761F480914B22815080934B2296
:100BA000811113C062E081E00C94610E08958034DD
:100BB000924059F480914A22815080934A228111B7
:100BC00004C062E082E00C94610E0895EF92FF92FF
:100BD0001F93CF93DF931F921F92CDB7DEB77C0197
:100BE0008FB78983F8941981C701B0DFF70180813D
:100BF000816080831FBF80919B228F3F09F4FFCFCC
:100C00008FB78A83F8949A81EAE9F2E281818F5F53
:100C100081839FBF0F900F90DF91CF911F91FF9025
:100C2000EF900895FC01918195FFFDCF608380E0F6
:100C300090E00895FC0191819923ECF7808108955B
:100C40004F925F926F927F928F929F92AF92BF92DC
:100C5000EF92FF920F931F93CF937C014A015B01A8
:100C600028013901FC01848182FF16C0D901C80125
:100C7000689412F8B695A795979587951694D1F72D
:100C8000B901A801032E36E17695679557954795EA
:100C90003A95D1F7302D15C0D901C801689413F8E1
:100CA000B695A795979587951694D1F7B901A801A0
:100CB000032E37E176956795579547953A95D1F785
:100CC000302D88159905AA05BB0508F4A6C0841621
:100CD0009506A606B70608F4A2C0F701848182FD36
:100CE00004C0880C991CAA1CBB1CC301B201A5013D
:100CF00094010E94001B2F3F31054105510508F466
:100D000090C08FEF90E0A0E0B0E0C9EF05C02817D9
:100D100039074A075B0758F0880F991FAA1FBB1FA6
:100D2000CD3F0CF48160CF5FC73089F74FC0CC2333
:100D30000CF04CC0D501C401880F991FAA1FBB1F1E
:100D4000880F991FAA1FBB1F880F991FAA1FBB1FBF
:100D5000481A590A6A0A7B0ACE3FF4F48DEF9FEFD6
:100D60008C1B9109C7FD939504C0440C551C661C4F
:100D7000771C8A95D2F7D501C401B695A7959795AA
:100D80008795BC01CD01640D751D861D971DA501BC
:100D900094010E94001B37C083E08C0FA5019401D1
:100DA00004C0220F331F441F551F8A95D2F7DA0162
:100DB000C901B695A79597958795BC01CD01640D9E
:100DC000751D861D971D0E94001B1DC083E08C0FA2
:100DD000A501940104C0220F331F441F551F8A959B
:100DE000D2F7DA01C901B695A79597958795BC0109
:100DF000CD01640D751D861D971D0E94001B21509D
:100E0000310941095109832F8F70C295C07FC82BCA
:100E1000F701C783268381E018C080E016C080E018
:100E200014C0D501C401880F991FAA1FBB1F880FCA
:100E3000991FAA1FBB1F880F991FAA1FBB1F481A03
:100E4000590A6A0A7B0AC9EF89CFCF911F910F9186
:100E5000FF90EF90BF90AF909F908F907F906F909A
:100E60005F904F9008950F931F93CF93DF93EC0102
:100E70008B01009709F4E6C0803C910521F460E104
:100E800080E009D7DFC0C03881E0D80721F462E0F4
:100E900080E001D7D7C0C115E1E0DE0721F461E0B1
:100EA00080E0F9D6CFC0C038F3E0DF0721F461E07D
:100EB00081E0F1D6C7C0C03983E0D80721F461E0F2
:100EC00082E0E9D6BFC0C115E2E0DE0721F462E0AE
:100ED00081E0E1D6B7C0C034F2E0DF0721F462E080
:100EE00082E0D9D6AFC0C03283E0D80721F464E0F5
:100EF00082E0D1D6A7C0C115E8E0DE0721F461E0A9
:100F000083E0C9D69FC0C115F9E0DF0721F461E095
:100F100084E0C1D697C0C1158AE0D80721F461E00A
:100F200085E0B9D68FC0C115EBE0DE0721F461E0A2
:100F300086E0B1D687C0C034F8E0DF0721F462E074
:100F400083E0A9D67FC0C03489E0D80721F462E0ED
:100F500084E0A1D677C0C034EAE0DE0721F462E085
:100F600085E099D66FC0C039F8E0DF0721F464E06E
:100F700083E091D667C0C03989E0D80721F464E0E6
:100F800084E089D65FC0C039EAE0DE0721F464E07E
:100F900085E081D657C0C039FBE0DF0721F464E06B
:100FA00086E079D64FC0C03C88E0D80721F468E0DD
:100FB00083E071D647C0C03CE9E0DE0721F468E079
:100FC00084E069D63FC0C03AF8E0DF0721F460E171
:100FD00083E061D637C0C03A89E0D80721F460E1E8
:100FE00084E059D62FC0C03AEAE0DE0721F460E180
:100FF00085E051D627C0C03AFBE0DF0721F460E16D
:1010000086E049D61FC0C03B88E0D80721F460E2E3
:1010100083E041D617C0C03BE9E0DE0721F460E27F
:1010200084E039D60FC0C038F4E0DF0721F460E473
:1010300083E031D607C0C03A84E0D80719F460E4F1
:1010400085E029D68D818F738D83F8019581848108
:10105000892B9681911198E0892B8D83F80140812D
:1010600051816281738100E814E82EE130E0CE0105
:10107000E7DD9C8198609C839C8190619C83DF91DB
:10108000CF911F910F910895CF92DF92EF92FF922F
:101090000F931F93CF93DF93EC01D901C801B6954D
:1010A000A79597958795481759076A077B0778F49E
:1010B0006A017B01CC0CDD1CEE1CFF1CC901B801D0
:1010C000A70196010E94001B2150310902C020E0B7
:1010D00030E0832F8F708F832E83DF91CF911F910C
:1010E0000F91FF90EF90DF90CF900895DF92EF92F5
:1010F000FF920F931F93CF93DF931F92CDB7DEB76D
:101100007C018B01009709F4B2C1803C910521F468
:1011100060E180E0C0D5ABC180E8E81681E0F80668
:1011200021F462E080E0B7D5A2C1E114E1E0FE065F
:1011300021F461E080E0AFD59AC1F0E8EF16F3E06A
:10114000FF0621F461E081E0A6D591C130E9E31604
:1011500033E0F30621F461E082E09DD588C1E1141B
:1011600082E0F80621F462E081E095D580C1E0E4F8
:10117000EE16E2E0FE0621F462E082E08CD577C153
:10118000F0E2EF16F3E0FF0621F464E082E083D59D
:101190006EC1E11438E0F30621F461E083E07BD511
:1011A00066C1E11489E0F80621F461E084E073D5BA
:1011B0005EC1E114EAE0FE0621F461E085E06BD552
:1011C00056C1E114FBE0FF0621F461E086E063D53F
:1011D0004EC130E4E31638E0F30621F462E083E028
:1011E0005AD545C180E4E81689E0F80621F462E0AA
:1011F00084E051D53CC1E0E4EE16EAE0FE0621F4BD
:1012000062E085E048D533C1F0E9EF16F8E0FF066B
:1012100021F464E083E03FD52AC130E9E31639E0E8
:10122000F30621F464E084E036D521C180E9E816B4
:101230008AE0F80621F464E085E02DD518C1E0E9E4
:10124000EE16EBE0FE0621F464E086E024D50FC143
:10125000F0ECEF16F8E0FF0621F468E083E01BD520
:1012600006C130ECE31639E0F30621F468E084E0CF
:1012700012D5FDC080EAE81688E0F80661F460E166
:1012800083E009D5E0EAF8E084818F7E8483F80169
:10129000248122504CC0F0EAEF16F9E0FF0621F459
:1012A00060E184E0F8D4E3C030EAE3163AE0F30604
:1012B00021F460E185E0EFD4DAC080EAE8168BE043
:1012C000F80621F460E186E0E6D4D1C0E0EBEE164A
:1012D000E8E0FE0621F460E283E0DDD4C8C0F0EB74
:1012E000EF16F9E0FF0621F460E284E0D4D4BFC039
:1012F00030E8E31634E0F30621F460E483E0CBD475
:10130000B6C080EAE81684E0F80621F460E485E0DF
:10131000C2D4ADC0F70184818F7E8483FB01248118
:101320002250C701F0EAEF16F8E0FF0649F4809179
:101330004E0684FDA5C00F2EF1E1DF2EF02DA4C0D6
:10134000803B38E0930791F0803AE9E09E0749F44A
:1013500030916E0634FD9BC00F2EF9E1DF2EF02D8B
:1013600016C0803BF9E09F07F1F004C00F2EF5E1B5
:10137000DF2EF02D803A3AE0930749F480918E06F3
:1013800084FD8AC00F2EF1E2DF2EF02D15C0803AC9
:101390009B4091F48091AE0684FD0AC00F2EF9E2C5
:1013A000DF2EF02D09C00F2EFDE1DF2EF02D04C041
:1013B0000F2EFDE2DF2EF02DED2DE695E695E6955C
:1013C00030E2E39FF0011124FA5F3D2D377081E098
:1013D00090E0032E02C0880F991F0A94E2F78183E0
:1013E000223010F040E001C040E4DF015096A30F2E
:1013F000B11D9FB79983F89439812C9127702C9354
:101400009C91942B9C933FBF8583F7018581806CD1
:101410008583F80184818D7F813029F4F7018581EE
:101420008260858304C0F70185818D7F8583F80103
:101430008581882329F0F70185818460858304C034
:10144000F70185818B7F8583F8014081518162811D
:10145000738100E814E82EE130E0C70115DEF701E2
:101460008481886084838481806184831AC0F701C9
:1014700084818F7E8483F80124812250C70160CF4C
:101480000F2EF5E1DF2EF02D80EA98E06ACF0F2EC7
:10149000FDE1DF2EF02D7BCF0F2EF5E2DF2EF02DBC
:1014A0008BCF0F90DF91CF911F910F91FF90EF9015
:1014B000DF9008951F920F920FB60F9211240BB672
:1014C0000F922F933F934F935F936F937F938F93DD
:1014D0009F93AF93BF93EF93FF934091240250915A
:1014E0002502E0919822F091992261E080E092E05B
:1014F0001995FF91EF91BF91AF919F918F917F913E
:101500006F915F914F913F912F910F900BBE0F9074
:101510000FBE0F901F9018951F920F920FB60F924B
:1015200011240BB60F922F933F934F935F936F93BA
:101530007F938F939F93AF93BF93EF93FF934091CC
:101540002C0250912D02E0919822F091992262E0B4
:1015500080E092E01995FF91EF91BF91AF919F913B
:101560008F917F916F915F914F913F912F910F904C
:101570000BBE0F900FBE0F901F9018951F920F92E9
:101580000FB60F9211240BB60F922F933F934F93E8
:101590005F936F937F938F939F93AF93BF93EF93DB
:1015A000FF934091340250913502E0919822F091DE
:1015B000992264E080E092E01995FF91EF91BF914C
:1015C000AF919F918F917F916F915F914F913F91DB
:1015D0002F910F900BBE0F900FBE0F901F9018957C
:1015E0001F920F920FB60F9211240BB60F922F93EA
:1015F0003F934F935F936F937F938F939F93AF939B
:10160000BF93EF93FF9340913C0250913D02E091D4
:101610009822F091992268E080E092E01995FF917C
:10162000EF91BF91AF919F918F917F916F915F915A
:101630004F913F912F910F900BBE0F900FBE0F90C7
:101640001F9018951F920F920FB60F9211240BB690
:101650000F922F933F934F935F936F937F938F934B
:101660009F93AF93BF93EF93FF9340916402509188
:101670006502E0919622F091972261E080E492E089
:101680001995FF91EF91BF91AF919F918F917F91AC
:101690006F915F914F913F912F910F900BBE0F90E3
:1016A0000FBE0F901F9018951F920F920FB60F92BA
:1016B00011240BB60F922F933F934F935F936F9329
:1016C0007F938F939F93AF93BF93EF93FF9340913B
:1016D0006C0250916D02E0919622F091972262E0A7
:1016E00080E492E01995FF91EF91BF91AF919F91A6
:1016F0008F917F916F915F914F913F912F910F90BB
:101700000BBE0F900FBE0F901F9018951F920F9257
:101710000FB60F9211240BB60F922F933F934F9356
:101720005F936F937F938F939F93AF93BF93EF9349
:10173000FF934091740250917502E0919622F091CE
:10174000972264E080E492E01995FF91EF91BF91B8
:10175000AF919F918F917F916F915F914F913F9149
:101760002F910F900BBE0F900FBE0F901F901895EA
:101770001F920F920FB60F9211240BB60F922F9358
:101780003F934F935F936F937F938F939F93AF9309
:10179000BF93EF93FF9340917C0250917D02E091C3
:1017A0009622F091972268E080E492E01995FF91EB
:1017B000EF91BF91AF919F918F917F916F915F91C9
:1017C0004F913F912F910F900BBE0F900FBE0F9036
:1017D0001F901895BF92CF92DF92EF92FF920F93D6
:1017E0001F93CF93DF931F92CDB7DEB78C017B01A0
:1017F000811522E0920781F461E270E082E00E94AC
:101800004017C82ED12C60E270E082E00E944017A1
:10181000DC2CCC24C82A12C080349240D1F565E279
:1018200070E082E00E944017C82ED12C64E270E084
:1018300082E00E944017DC2CCC24C82A8FB7898311
:10184000F894B980C80182D9F801808192E0908330
:10185000C486D586F70125813681F801208F318F26
:10186000F7019281F8019283F7019481F801948342
:10187000F7019381F8019383F7019181F801918336
:101880008170F7019081892BF8018083C8017FD98D
:10189000BFBE0F90DF91CF911F910F91FF90EF90FE
:1018A000DF90CF90BF900895DF92EF92FF920F9359
:1018B0001F93CF93DF931F92CDB7DEB78C017B01CF
:1018C0008FB78983F894D980C80140D9F801808105
:1018D000807CF7018083F801808D918DF7018583ED
:1018E0009683F8018281F7018283F8018481F701F0
:1018F0008483F8018381F7018383F8018181F701F3
:101900008183C80144D9DFBE0F90DF91CF911F9131
:101910000F91FF90EF90DF900895AF92BF92CF921A
:10192000DF92EF92FF920F931F93CF93DF931F925B
:10193000CDB7DEB76C01B62E7A01862F837029F4FD
:10194000962F9695969582E002C0962F80E090FFA4
:101950008F5F8601005E1F4F98E0899F000D111D6B
:1019600011248FB78983F894A980C601EFD8F701B5
:101970008081F8018083F7018281F8018283F70179
:101980008181F8018183B0FE04C0F7018381F801F1
:101990008683C601FCD8AFBE0F90DF91CF911F9117
:1019A0000F91FF90EF90DF90CF90BF90AF90089590
:1019B000AF92BF92CF92DF92EF92FF920F931F935D
:1019C000CF93DF931F92CDB7DEB76C01B62E7A01AD
:1019D000862F837029F4962F9695969582E002C003
:1019E000962F80E090FF8F5F8601005E1F4F98E08A
:1019F000899F000D111D11248FB78983F894A98048
:101A0000C601A4D8F8018081F7018083F8018281A2
:101A1000F7018283F8018181F7018183B0FE04C060
:101A2000F8018681F7018383C601B1D8AFBE0F905C
:101A3000DF91CF911F910F91FF90EF90DF90CF90AA
:101A4000BF90AF900895803A28E0920721F460E1BA
:101A500083E021C10895803B28E0920721F460E2F1
:101A600083E019C10895803A29E0920721F460E1EA
:101A700084E011C10895803B29E0920721F460E2DF
:101A800084E009C10895803A2AE0920721F460E1D8
:101A900085E001C10895803A9B4019F460E186E039
:101AA000FAC008950F931F93CF93DF9300D000D017
:101AB000CDB7DEB709831A832B833C834D831E8207
:101AC000BE016F5F7F4F12DB2696CDBFDEBFDF9179
:101AD000CF911F910F910895FB018081E82FE6952A
:101AE000E695E69540E2E49FF0011124FA5F8770E5
:101AF00021E030E0A90102C0440F551F8A95E2F7AA
:101B000046830895FB018081E82FE695E695E695EA
:101B100040E2E49FF0011124FA5F877021E030E099
:101B2000A90102C0440F551F8A95E2F74583089525
:101B300080934C2290934D22089520914C22309115
:101B40004D2290E8899F200D311D1124F901E60FE7
:101B5000F11D4083089520914C2230914D2290E850
:101B6000899F200D311D1124F901E60FF11D80819F
:101B70000895FF920F931F93CF93DF93E42FF0E02C
:101B8000E80FF11DE138F1051CF0C0E84C2F481BAF
:101B9000442309F450C0D62FD695D695D69570E03B
:101BA00098E0D99F601971091124E1E0F0E0DF01AC
:101BB00002C0AA0FBB1F6A95E2F7FA2E213021F06E
:101BC000A8F0223039F137C0C42F1FEF180F012FB2
:101BD0000C0F602F8D2F0E9483054F2D482B602FF7
:101BE0008D2F0E945704C15091F725C0C42F1FEFBD
:101BF000180FFA2EF094012F0C0F602F8D2F0E94DA
:101C000083054F2D4823602F8D2F0E945704C1500C
:101C100091F711C0C42F1FEF180F012F0C0F602F69
:101C20008D2F0E9483054F2D4827602F8D2F0E94F6
:101C30005704C15091F7DF91CF911F910F91FF9001
:101C40000895FF920F931F93CF93DF93222369F0A0
:101C5000F42E182FC22FDFEFD60F6D2F6C0F202F11
:101C60004F2D812F86DFC150C1F7DF91CF911F919A
:101C70000F91FF9008958FEF809370008093710013
:101C8000809372008093730080937400809375003A
:101C9000809376000895CF93DF931F92CDB7DEB780
:101CA0009FB79983F8949981E82FF0E0E059FF4FAE
:101CB00060958081682360839FBF0F90DF91CF91F3
:101CC0000895CF93DF931F92CDB7DEB79FB7998367
:101CD000F8949981E82FF0E0E059FF4F8081682B5C
:101CE00060839FBF0F90DF91CF910895AF92BF9215
:101CF000CF92DF92EF92FF920F931F93CF93DF93D8
:101D0000C82FE62EB42E690100E0F9012481438139
:101D10006B2D8E2D96DFF601808181113AC0838173
:101D2000282F269526952695877009F02F5FF601B6
:101D3000A4808C2F90E03581831B91092A9D90010E
:101D40001124829FA001839F500D929F500D11245A
:101D500001811281040F151FF601F380FF20A9F005
:101D6000D0E0C0E08E2D8C0F9C2F977021F4F801ED
:101D7000D4910F5F1F4FDD2324F441E06B2D0E94AF
:101D80004C05DD0FCF5FFC12EDCFB394AA94A110E8
:101D9000E3CFDF91CF911F910F91FF90EF90DF90F4
:101DA000CF90BF90AF900895DF92EF92FF920F9384
:101DB0001F93CF93DF93D62E042F7901EC01162FBA
:101DC00089918A3031F4F70184818F5F080F1D2DCE
:101DD00009C08D3039F09701402F612F87DFF7015F
:101DE0008381180F88818111EBCFDF91CF911F91F3
:101DF0000F91FF90EF90DF9008951F920F920FB612
:101E00000F9211240BB60F922F933F934F935F9332
:101E10006F937F938F939F93AF93BF93EF93FF93B2
:101E2000E0919422F0919522309709F01995FF9155
:101E3000EF91BF91AF919F918F917F916F915F9142
:101E40004F913F912F910F900BBE0F900FBE0F90AF
:101E50001F9018951F920F920FB60F9211240BB678
:101E60000F922F933F934F935F936F937F938F9333
:101E70009F93AF93BF93EF93FF93E0919222F091E2
:101E80009322309709F01995FF91EF91BF91AF918F
:101E90009F918F917F916F915F914F913F912F9182
:101EA0000F900BBE0F900FBE0F901F9018951F92B2
:101EB0000F920FB60F9211240BB60F922F933F93F0
:101EC0004F935F936F937F938F939F93AF93BF9342
:101ED000EF93FF93E0919022F0919122309709F0D7
:101EE0001995FF91EF91BF91AF919F918F917F9144
:101EF0006F915F914F913F912F910F900BBE0F907B
:101F00000FBE0F901F9018951F920F920FB60F9251
:101F100011240BB60F922F933F934F935F936F93C0
:101F20007F938F939F93AF93BF93EF93FF93E09132
:101F30008E22F0918F22309709F01995FF91EF9141
:101F4000BF91AF919F918F917F916F915F914F91D1
:101F50003F912F910F900BBE0F900FBE0F901F90CF
:101F600018951F920F920FB60F9211240BB60F9275
:101F70002F933F934F935F936F937F938F939F9391
:101F8000AF93BF93EF93FF93E0918C22F0918D225A
:101F9000309709F01995FF91EF91BF91AF919F9103
:101FA0008F917F916F915F914F913F912F910F9002
:101FB0000BBE0F900FBE0F901F9018951F920F929F
:101FC0000FB60F9211240BB60F922F933F934F939E
:101FD0005F936F937F938F939F93AF93BF93EF9391
:101FE000FF93E0918A22F0918B22309709F01995A6
:101FF000FF91EF91BF91AF919F918F917F916F91E1
:102000005F914F913F912F910F900BBE0F900FBE9C
:102010000F901F9018951F920F920FB60F921124D8
:102020000BB60F922F933F934F935F936F937F93D2
:102030008F939F93AF93BF93EF93FF93E091882289
:10204000F0918922309709F01995FF91EF91BF9196
:10205000AF919F918F917F916F915F914F913F9140
:102060002F910F900BBE0F900FBE0F901F901895E1
:102070001F920F920FB60F9211240BB60F922F934F
:102080003F934F935F936F937F938F939F93AF9300
:10209000BF93EF93FF93E0918622F09187223097D0
:1020A00009F01995FF91EF91BF91AF919F918F9199
:1020B0007F916F915F914F913F912F910F900BBE48
:1020C0000F900FBE0F901F9018951F920F920FB692
:1020D0000F9211240BB60F922F933F934F935F9360
:1020E0006F937F938F939F93AF93BF93EF93FF93E0
:1020F000E0918422F0918522309709F01995FF91A3
:10210000EF91BF91AF919F918F917F916F915F916F
:102110004F913F912F910F900BBE0F900FBE0F90DC
:102120001F9018951F920F920FB60F9211240BB6A5
:102130000F922F933F934F935F936F937F938F9360
:102140009F93AF93BF93EF93FF93E0918222F0911F
:102150008322309709F01995FF91EF91BF91AF91CC
:102160009F918F917F916F915F914F913F912F91AF
:102170000F900BBE0F900FBE0F901F9018951F92DF
:102180000F920FB60F9211240BB60F922F933F931D
:102190004F935F936F937F938F939F93AF93BF936F
:1021A000EF93FF93E0918022F0918122309709F024
:1021B0001995FF91EF91BF91AF919F918F917F9171
:1021C0006F915F914F913F912F910F900BBE0F90A8
:1021D0000FBE0F901F9018951F920F920FB60F927F
:1021E00011240BB60F922F933F934F935F936F93EE
:1021F0007F938F939F93AF93BF93EF93FF93E09160
:102200007E22F0917F22309709F01995FF91EF918E
:10221000BF91AF919F918F917F916F915F914F91FE
:102220003F912F910F900BBE0F900FBE0F901F90FC
:1022300018951F920F920FB60F9211240BB60F92A2
:102240002F933F934F935F936F937F938F939F93BE
:10225000AF93BF93EF93FF93E0917C22F0917D22A7
:10226000309709F01995FF91EF91BF91AF919F9130
:102270008F917F916F915F914F913F912F910F902F
:102280000BBE0F900FBE0F901F9018951F920F92CC
:102290000FB60F9211240BB60F922F933F934F93CB
:1022A0005F936F937F938F939F93AF93BF93EF93BE
:1022B000FF93E0917A22F0917B22309709F01995F3
:1022C000FF91EF91BF91AF919F918F917F916F910E
:1022D0005F914F913F912F910F900BBE0F900FBECA
:1022E0000F901F9018951F920F920FB60F92112406
:1022F0000BB60F922F933F934F935F936F937F9300
:102300008F939F93AF93BF93EF93FF93E0917822C6
:10231000F0917922309709F01995FF91EF91BF91D3
:10232000AF919F918F917F916F915F914F913F916D
:102330002F910F900BBE0F900FBE0F901F9018950E
:102340001F920F920FB60F9211240BB60F922F937C
:102350003F934F935F936F937F938F939F93AF932D
:10236000BF93EF93FF93E0917622F091772230971D
:1023700009F01995FF91EF91BF91AF919F918F91C6
:102380007F916F915F914F913F912F910F900BBE75
:102390000F900FBE0F901F9018951F920F920FB6BF
:1023A0000F9211240BB60F922F933F934F935F938D
:1023B0006F937F938F939F93AF93BF93EF93FF930D
:1023C000E0917422F0917522309709F01995FF91F0
:1023D000EF91BF91AF919F918F917F916F915F919D
:1023E0004F913F912F910F900BBE0F900FBE0F900A
:1023F0001F9018951F920F920FB60F9211240BB6D3
:102400000F922F933F934F935F936F937F938F938D
:102410009F93AF93BF93EF93FF93E0917222F0915C
:102420007322309709F01995FF91EF91BF91AF9109
:102430009F918F917F916F915F914F913F912F91DC
:102440000F900BBE0F900FBE0F901F9018951F920C
:102450000F920FB60F9211240BB60F922F933F934A
:102460004F935F936F937F938F939F93AF93BF939C
:10247000EF93FF93E0917022F0917122309709F071
:102480001995FF91EF91BF91AF919F918F917F919E
:102490006F915F914F913F912F910F900BBE0F90D5
:1024A0000FBE0F901F9018951F920F920FB60F92AC
:1024B00011240BB60F922F933F934F935F936F931B
:1024C0007F938F939F93AF93BF93EF93FF93E0918D
:1024D0006E22F0916F22309709F01995FF91EF91DC
:1024E000BF91AF919F918F917F916F915F914F912C
:1024F0003F912F910F900BBE0F900FBE0F901F902A
:1025000018951F920F920FB60F9211240BB60F92CF
:102510002F933F934F935F936F937F938F939F93EB
:10252000AF93BF93EF93FF93E0916C22F0916D22F4
:10253000309709F01995FF91EF91BF91AF919F915D
:102540008F917F916F915F914F913F912F910F905C
:102550000BBE0F900FBE0F901F9018951F920F92F9
:102560000FB60F9211240BB60F922F933F934F93F8
:102570005F936F937F938F939F93AF93BF93EF93EB
:10258000FF93E0916A22F0916B22309709F0199540
:10259000FF91EF91BF91AF919F918F917F916F913B
:1025A0005F914F913F912F910F900BBE0F900FBEF7
:1025B0000F901F9018951F920F920FB60F92112433
:1025C0000BB60F922F933F934F935F936F937F932D
:1025D0008F939F93AF93BF93EF93FF93E091682204
:1025E000F0916922309709F01995FF91EF91BF9111
:1025F000AF919F918F917F916F915F914F913F919B
:102600002F910F900BBE0F900FBE0F901F9018953B
:102610001F920F920FB60F9211240BB60F922F93A9
:102620003F934F935F936F937F938F939F93AF935A
:10263000BF93EF93FF93E0916622F091672230976A
:1026400009F01995FF91EF91BF91AF919F918F91F3
:102650007F916F915F914F913F912F910F900BBEA2
:102660000F900FBE0F901F9018951F920F920FB6EC
:102670000F9211240BB60F922F933F934F935F93BA
:102680006F937F938F939F93AF93BF93EF93FF933A
:10269000E0916422F0916522309709F01995FF913D
:1026A000EF91BF91AF919F918F917F916F915F91CA
:1026B0004F913F912F910F900BBE0F900FBE0F9037
:1026C0001F9018951F920F920FB60F9211240BB600
:1026D0000F922F933F934F935F936F937F938F93BB
:1026E0009F93AF93BF93EF93FF93E0916222F0919A
:1026F0006322309709F01995FF91EF91BF91AF9147
:102700009F918F917F916F915F914F913F912F9109
:102710000F900BBE0F900FBE0F901F9018951F9239
:102720000F920FB60F9211240BB60F922F933F9377
:102730004F935F936F937F938F939F93AF93BF93C9
:10274000EF93FF93E0916022F0916122309709F0BE
:102750001995FF91EF91BF91AF919F918F917F91CB
:102760006F915F914F913F912F910F900BBE0F9002
:102770000FBE0F901F9018951F920F920FB60F92D9
:1027800011240BB60F922F933F934F935F936F9348
:102790007F938F939F93AF93BF93EF93FF93E091BA
:1027A0005E22F0915F22309709F01995FF91EF9129
:1027B000BF91AF919F918F917F916F915F914F9159
:1027C0003F912F910F900BBE0F900FBE0F901F9057
:1027D00018951F920F920FB60F9211240BB60F92FD
:1027E0002F933F934F935F936F937F938F939F9319
:1027F000AF93BF93EF93FF93E0915C22F0915D2242
:10280000309709F01995FF91EF91BF91AF919F918A
:102810008F917F916F915F914F913F912F910F9089
:102820000BBE0F900FBE0F901F9018951F920F9226
:102830000FB60F9211240BB60F922F933F934F9325
:102840005F936F937F938F939F93AF93BF93EF9318
:10285000FF93E0915A22F0915B22309709F019958D
:10286000FF91EF91BF91AF919F918F917F916F9168
:102870005F914F913F912F910F900BBE0F900FBE24
:102880000F901F9018951F920F920FB60F92112460
:102890000BB60F922F933F934F935F936F937F935A
:1028A0008F939F93AF93BF93EF93FF93E091582241
:1028B000F0915922309709F01995FF91EF91BF914E
:1028C000AF919F918F917F916F915F914F913F91C8
:1028D0002F910F900BBE0F900FBE0F901F90189569
:1028E0001F920F920FB60F9211240BB60F922F93D7
:1028F0003F934F935F936F937F938F939F93AF9388
:10290000BF93EF93FF93E0915622F09157223097B7
:1029100009F01995FF91EF91BF91AF919F918F9120
:102920007F916F915F914F913F912F910F900BBECF
:102930000F900FBE0F901F9018951F920F920FB619
:102940000F9211240BB60F922F933F934F935F93E7
:102950006F937F938F939F93AF93BF93EF93FF9367
:10296000E0915422F0915522309709F01995FF918A
:10297000EF91BF91AF919F918F917F916F915F91F7
:102980004F913F912F910F900BBE0F900FBE0F9064
:102990001F9018951F920F920FB60F9211240BB62D
:1029A0000F922F933F934F935F936F937F938F93E8
:1029B0009F93AF93BF93EF93FF93E0915222F091D7
:1029C0005322309709F01995FF91EF91BF91AF9184
:1029D0009F918F917F916F915F914F913F912F9137
:1029E0000F900BBE0F900FBE0F901F9018951F9267
:1029F0000F920FB60F9211240BB60F922F933F93A5
:102A00004F935F936F937F938F939F93AF93BF93F6
:102A1000EF93FF93E0915022F0915122309709F00B
:102A20001995FF91EF91BF91AF919F918F917F91F8
:102A30006F915F914F913F912F910F900BBE0F902F
:102A40000FBE0F901F9018951F920F920FB60F9206
:102A500011240BB60F922F933F934F935F936F9375
:102A60007F938F939F93AF93BF93EF93FF93E091E7
:102A70004E22F0914F22309709F01995FF91EF9176
:102A8000BF91AF919F918F917F916F915F914F9186
:102A90003F912F910F900BBE0F900FBE0F901F9084
:102AA00018951F93CF93DF931F921F92CDB7DEB778
:102AB0002FB72A83F8941A81282F392F211588E0FF
:102AC000380739F461E083E0E6D864E083E0E3D8D6
:102AD00043C0203488E0380739F462E083E0DBD873
:102AE00064E083E0D8D838C0211589E0380739F48C
:102AF00061E084E0D0D864E084E0CDD82DC02034FB
:102B000089E0380739F462E084E0C5D864E084E005
:102B1000C2D822C021158AE0380739F461E085E087
:102B2000BAD864E085E0B7D817C020348AE0380707
:102B300039F462E085E0AFD864E085E0ACD80CC041
:102B400021153B4039F461E086E0A5D864E086E0D9
:102B5000A2D802C01FBF10C080919B228F3F09F4F2
:102B6000FFCF8FB78983F8949981EAE9F2E28181F6
:102B70008F5F81839FBF1FBF0F900F90DF91CF9119
:102B80001F910895CF92DF92EF92FF92CF93DF9340
:102B9000EC016B01E12CF12C60E874E88EE190E02F
:102BA000A70196012DD5CA01B9012FEF3FEF40E0F3
:102BB00050E026D52115310529F481E08C8321E0F0
:102BC00030E02DC02230310528F482E08C8322E0F1
:102BD00030E025C02430310528F483E08C8324E0E4
:102BE00030E01DC02830310528F484E08C8328E0D3
:102BF00030E015C02034310528F485E08C8320E4D2
:102C000030E00DC02F3F310509F028F486E08C83B9
:102C100020E031E004C087E08C8320E034E040E035
:102C200050E060E874E88EE190E0EAD4CA01B901AE
:102C3000A7019601E5D42D833E832436310518F48F
:102C40001C821D821E82DF91CF91FF90EF90DF905A
:102C5000CF9008950F931F93CF93DF93EC018901D9
:102C6000862F90E08730910508F08AC0FC01882704
:102C7000E250FF4F8F4FE6C480E098E0888399834D
:102C8000E0E4F6E0308181E090E02FEF240F02C015
:102C9000880F991F2A95E2F7832B808371C080E407
:102CA00098E088839983E0E4F6E0308181E090E069
:102CB00023E0240F02C0880F991F2A95E2F7832B87
:102CC00080835EC080E099E088839983E0E6F6E047
:102CD000308181E090E02FEF240F02C0880F991F10
:102CE0002A95E2F7832B80834BC080E499E08883A8
:102CF0009983E0E6F6E0308181E090E023E0240F64
:102D000002C0880F991F2A95E2F7832B808338C071
:102D100080E09AE088839983E0E8F6E0308181E002
:102D200090E02FEF240F02C0880F991F2A95E2F739
:102D3000832B808325C080E49AE088839983E0E830
:102D4000F6E0308181E090E023E0240F02C0880F9C
:102D5000991F2A95E2F7832B808312C080E09BE0C5
:102D600088839983E0EAF6E0308181E090E02FEFFC
:102D7000240F02C0880F991F2A95E2F7832B8083C6
:102D80004A83423061F018F4413031F010C04330D2
:102D900049F0443051F00BC080E18B8308C080E2E1
:102DA0008B8305C080E48B8302C080E88B8388819D
:102DB000998177DEE881F9818181887F83608183D1
:102DC0001D821E821C82E881F9818081807F808340
:102DD000B801CE01D7DEDF91CF911F910F910895F9
:102DE000CF93DF93EC012D813E81A62FB0E032D44A
:102DF00024E630E040E050E003D48A81E881F981A4
:102E0000E6FD17C0823061F018F4813031F01BC04C
:102E1000833049F0843051F016C020AF31AF13C079
:102E200022AF33AF10C024AF35AF0DC026AF37AFE0
:102E30000AC0813019F0823021F005C020AF31AFD7
:102E400002C022AF33AF8D819E81E881F98186A3D4
:102E500097A38B81E881F981E6FD04C09181892BDC
:102E6000818304C091818073892B8183E881F981FA
:102E70008081807F9C81892B8083DF91CF91089511
:102E80004091CA01E62FF72F8093CA0184914093A5
:102E9000CA010895CF93DF93FC0120E030E0C62FF4
:102EA000D0E0DE01022E02C0B595A7950A94E2F7A4
:102EB000A0FD508B2F5F3F4F31962830310589F7A9
:102EC00040FF0AC041FF03C0FC01658302C0FC0152
:102ED0006683FC01618302C0FC016283DF91CF91B4
:102EE000089543E050E061E080EE97E0D3DF43E0F7
:102EF00050E062E080EE97E0CDDF43E050E060E13B
:102F000080E696E0C7DF41E050E460E280E696E0CC
:102F1000C1DF40E05BE160E280E896E0BBDF40E0DB
:102F20005BE162E080EA96E0B5DF40E05BE164E00F
:102F300080EA96E0AFDF43E050E062E080E696E0B2
:102F4000A9DF43E050E068E080E696E0A3DF43E0DD
:102F500050E068E080EA96E09DDF43E050E061E009
:102F600080E696E097DF43E050E068E080E096E09E
:102F700091DF41E050E060E180E896E08BDF43E0E4
:102F800050E062E080E696E085DF43E050E068E0F4
:102F900080E696E07FDF40E050E064E080E696E087
:102FA00079DF43E050E060E180EA96E073DF40E0E3
:102FB00050E061E080E096E06DDF40E050E064E0EA
:102FC00080E096E067DF40E050E062E080E296E07B
:102FD00061DF43E050E068E080E496E05BDF40E0E2
:102FE00050E064E080E496E055DF43E050E068E0C4
:102FF00080E696E04FDF40E050E064E080E696E057
:1030000049DF43E050E068E080E896E043DF40E0DD
:1030100050E064E080E896E03DCF0895EF92FF92A3
:103020000F931F93CF93DF93CDB7DEB72B97CDBF11
:10303000DEBF8A0119821A821B821C8228EE33E0CD
:1030400041E060E0CE01059605DE053A81E0180713
:10305000A8F0B80180E090E0E2D121E836E242E455
:103060005DEB6BD223E333E345E552E443D1A6D1D4
:10307000062E000C770B880B990B14C0B80180E06A
:1030800090E0CDD12DE231E24FE95DEB56D223E362
:1030900033E342E852E42ED191D1062E000C770B97
:1030A000880B990B6093A2227093A322BAD126E6D3
:1030B00036E646EE5FE341D220E030E040E052E405
:1030C00019D17CD16093C6227093C7222091A0228F
:1030D0003091A122261737072CF464E6CE0105961D
:1030E0007FDE04C060E0CE0105967ADE8091C722C3
:1030F0008F938091C6228F938EE090E29F938F935F
:103100008E010F5F1F4F1F930F93E9D27E0195E051
:10311000E90EF11C0F900F900F900F900F900F90F1
:10312000F80161918F0180EA98E00E9412060E1565
:103130001F05B1F719821A821B821C828091A3227B
:103140008F938091A2228F9381E190E29F938F933E
:103150001F926894FF24F5F8FF9206EA12E21F938B
:103160000F9387D220E030E240E060E0C8010E9487
:10317000D40E8091C7228F938091C6228F9384E2D0
:1031800090E29F938F931F92FF921F930F9371D2A0
:1031900020E030E24AE060E0C8010E94D40ECDBFDA
:1031A000DEBF2B96CDBFDEBFDF91CF911F910F9178
:1031B000FF90EF900895CF93DF93CDB7DEB72D97B3
:1031C000CDBFDEBF8EDE0E943B0E87E08093A20063
:1031D00078940E94070567E070E280EA98E00E9418
:1031E000330780E180938506BE016F5F7F4F80E0EB
:1031F00092E00E94540CAE01485F5F4F61E080E0B6
:1032000092E00E94D80C9A818B818F7822E02D83E6
:10321000917E90619A831C8281618B83BE016F5F76
:103220007F4F80E092E00E94EA0B6EE078E180E060
:1032300092E00E94860581E0888788E089878A85F8
:10324000807F81608A87AE01485F5F4F61E080E0E8
:1032500092E00E948D0C80E092E00E94E6058FB71C
:103260008D87F8949D85E0E0F2E080818460808322
:103270009FBF0F2EF0EAEF2EF8E0FF2EF02D0F2E5D
:10328000F7E3AF2EF0E2BF2EF02D6894992495F865
:103290000F2EF6EACF2EF2E2DF2EF02D00E012E044
:1032A000F70181818823DCF4C7010E941A06282FC8
:1032B00030E02093A0223093A1221F928F93BF92DF
:1032C000AF921F929F92DF92CF92D3D120E030E253
:1032D00044E160E0C6010E94D40ECDBFDEBF8FB7CF
:1032E0008C87F8949C85F8018081846080839FBFDF
:1032F000D7CF5058BB27AA270ED0E5C0D6D030F084
:10330000DBD020F031F49F3F11F41EF4CBC00EF45B
:10331000E095E7FBC1C0E92FE7D080F3BA17620759
:1033200073078407950718F071F49EF5FFC00EF43B
:10333000E0950B2EBA2FA02D0B01B90190010C01C5
:10334000CA01A0011124FF27591B99F0593F50F4DD
:10335000503E68F11A16F040A22F232F342F442735
:10336000585FF3CF469537952795A795F04053952D
:10337000C9F77EF41F16BA0B620B730B840BBAF0FD
:103380009150A1F0FF0FBB1F661F771F881FC2F768
:103390000EC0BA0F621F731F841F48F4879577957C
:1033A0006795B795F7959E3F08F0B3CF9395880F33
:1033B00008F09927EE0F97958795089504D06894A3
:1033C000B111B5C0089598D088F09F5790F0B92FEB
:1033D0009927B751A0F0D1F0660F771F881F991F6A
:1033E0001AF0BA95C9F712C0B13081F09FD0B1E0A0
:1033F00008959CC0672F782F8827B85F39F0B93FB0
:10340000CCF3869577956795B395D9F73EF490956B
:103410008095709561957F4F8F4F9F4F0895E894E9
:1034200009C097FB3EF490958095709561957F4F0C
:103430008F4F9F4F9923A9F0F92F96E9BB279395BA
:10344000F695879577956795B795F111F8CFFAF4CA
:10345000BB0F11F460FF1BC06F5F7F4F8F4F9F4FFB
:1034600016C0882311F096E911C0772321F09EE859
:10347000872F762F05C0662371F096E8862F70E0BF
:1034800060E02AF09A95660F771F881FDAF7880F99
:103490009695879597F9089597F99F6780E870E06A
:1034A00060E008959FEF80EC089500240A941616BA
:1034B000170618060906089500240A941216130622
:1034C000140605060895092E0394000C11F48823B0
:1034D00052F0BB0F40F4BF2B11F460FF04C06F5FCC
:1034E0007F4F8F4F9F4F089557FD9058440F551FA2
:1034F00059F05F3F71F04795880F97FB991F61F076
:103500009F3F79F087950895121613061406551FEC
:10351000F2CF4695F1DF08C0161617061806991F58
:10352000F1CF86957105610508940895E894BB274D
:1035300066277727CB0197F908950BD0C4CFB5DF65
:1035400028F0BADF18F0952309F0A6CFABCF1124ED
:10355000EECFCADFA0F3959FD1F3950F50E0551F32
:10356000629FF001729FBB27F00DB11D639FAA27D8
:10357000F00DB11DAA1F649F6627B00DA11D661F27
:10358000829F2227B00DA11D621F739FB00DA11D48
:10359000621F839FA00D611D221F749F3327A00D02
:1035A000611D231F849F600D211D822F762F6A2F9E
:1035B00011249F5750408AF0E1F088234AF0EE0F23
:1035C000FF1FBB1F661F771F881F91505040A9F730
:1035D0009E3F510570F060CFAACF5F3FECF3983E5D
:1035E000DCF3869577956795B795F795E7959F5F97
:1035F000C1F7FE2B880F911D9695879597F9089531
:10360000A1E21A2EAA1BBB1BFD010DC0AA1FBB1FE6
:10361000EE1FFF1FA217B307E407F50720F0A21B58
:10362000B30BE40BF50B661F771F881F991F1A94C5
:1036300069F760957095809590959B01AC01BD01EF
:10364000CF010895EE0FFF1F881F8BBF0790F691E3
:10365000E02D1994A29FB001B39FC001A39F700DEC
:10366000811D1124911DB29F700D811D1124911D8A
:1036700008950F931F93CF93DF93CDB7DEB72E97A7
:10368000CDBFDEBF0E891F89888D998D26E02C83E2
:1036900009831A8397FF02C080E090E801978D8329
:1036A0009E83AE01445E5F4F6A8D7B8DCE01019695
:1036B0003ED04D815E8157FD0AC02F81388542176B
:1036C00053070CF49A01F801E20FF31F10822E96B3
:1036D000CDBFDEBFDF91CF911F910F9108950F9362
:1036E0001F93CF93DF93CDB7DEB72E97CDBFDEBF4D
:1036F0000E891F8986E08C8309831A838FEF9FE7E9
:103700008D839E83AE01465E5F4F688D798DCE01BD
:1037100001960DD0EF81F885E00FF11F10822E96F3
:10372000CDBFDEBFDF91CF911F910F9108952F92F2
:103730003F924F925F926F927F928F929F92AF9241
:10374000BF92CF92DF92EF92FF920F931F93CF938E
:10375000DF93CDB7DEB72B97CDBFDEBF6C017B010A
:103760008A01FC0116821782838181FFBFC1CE01CD
:1037700001963C01F6019381F70193FD859193FF3A
:1037800081917F01882309F4ADC1853239F493FD1D
:10379000859193FF81917F01853221F4B60190E0FC
:1037A000D3D1E8CF912C212C312CFFE1F315D8F0A7
:1037B0008B3279F038F4803279F08332A1F4232D02
:1037C00020611DC08D3261F0803369F4232D2160AA
:1037D00016C0832D8260382EE32DE4603E2E2AC071
:1037E000F32DF8601DC037FC2DC020ED280F2A30C6
:1037F00040F08E32B9F436FC75C1232D2064322E90
:1038000019C036FE06C08AE0989E200D1124922E23
:1038100011C0EAE02E9E200D1124222EF32DF0621D
:103820003F2E08C08C3621F4832D8068382E02C0CC
:10383000883641F4F70193FD859193FF81917F01D3
:103840008111B3CF982F9F7D9554933028F40C5F4E
:103850001F4F9FE399830DC0833631F0833771F09A
:10386000833509F055C020C0F801808189830E5F3F
:103870001F4F88248394912C530112C02801F2E039
:103880004F0E511CF801A080B18036FE03C0692D97
:1038900070E002C06FEF7FEFC5014BD14C01820198
:1038A000F32DFF773F2E15C0280122E0420E511C58
:1038B000F801A080B18036FE03C0692D70E002C01F
:1038C0006FEF7FEFC5012AD14C01F32DF0683F2E39
:1038D000820133FC19C0822D90E088169906A0F46D
:1038E000B60180E290E030D12A94F5CFF50137FCA3
:1038F000859137FE81915F01B60190E025D12110BD
:103900002A9421E0821A91088114910479F7E1C088
:10391000843611F0893639F5F80137FE07C0608129
:103920007181828193810C5F1F4F08C0608171811A
:10393000072E000C880B990B0E5F1F4FF32DFF769F
:103940003F2E97FF09C090958095709561957F4FA8
:103950008F4F9F4FF0683F2E2AE030E0A30130D117
:10396000882E861844C0853731F4232D2F7EB22E41
:103970002AE030E025C0932D997FB92E8F36C1F013
:1039800018F4883579F0AEC0803719F0883721F007
:10399000A9C0E92FE061BE2EB4FE0DC0FB2DF4607E
:1039A000BF2E09C034FE0AC0292F2660B22E06C0E1
:1039B00028E030E005C020E130E002C020E132E044
:1039C000F801B7FE07C060817181828193810C5F2D
:1039D0001F4F06C06081718180E090E00E5F1F4F35
:1039E000A301EED0882E8618FB2DFF773F2E36FEE2
:1039F0000DC0232D2E7FA22E891458F434FE0BC047
:103A000032FC09C0832D8E7EA82E05C0B82CA32CB5
:103A100003C0B82C01C0B92CA4FE0FC0FE01E80DF4
:103A2000F11D8081803321F49A2D997EA92E09C041
:103A3000A2FE06C0B394B39404C08A2D867809F020
:103A4000B394A3FC10C0A0FE06C0B21480F4280CEE
:103A5000922C9B180DC0B21458F4B60180E290E08D
:103A600073D0B394F8CFB21418F42B1802C0982C6A
:103A7000212CA4FE0FC0B60180E390E065D0A2FE29
:103A800016C0A1FC03C088E790E002C088E590E082
:103A9000B6010CC08A2D867851F0A1FE02C08BE2DF
:103AA00001C080E2A7FC8DE2B60190E04DD0891400
:103AB00030F4B60180E390E047D09A94F8CF8A942E
:103AC000F301E80DF11D8081B60190E03DD0811039
:103AD000F6CF222009F44ECEB60180E290E034D039
:103AE0002A94F7CFF6018681978102C08FEF9FEF6E
:103AF0002B96CDBFDEBFDF91CF911F910F91FF902D
:103B0000EF90DF90CF90BF90AF909F908F907F907D
:103B10006F905F904F903F902F900895FC0105901B
:103B2000615070400110D8F7809590958E0F9F1FBF
:103B30000895FC016150704001900110D8F7809504
:103B400090958E0F9F1F08950F931F93CF93DF9330
:103B5000FB01238121FD03C08FEF9FEF2CC022FFCB
:103B600016C046815781248135814217530744F49A
:103B7000A081B1819D012F5F3F4F208331838C93C2
:103B8000268137812F5F3F4F2683378314C08B01F7
:103B9000EC01FB010084F185E02D1995892BE1F6FC
:103BA000D80116968D919C911797019616968D9334
:103BB0009C931797CE01DF91CF911F910F9108959C
:103BC000FA01AA27283051F1203181F1E8946F934E
:103BD0006E7F6E5F7F4F8F4F9F4FAF4FB1E03ED0F4
:103BE000B4E03CD0670F781F891F9A1FA11D680F92
:103BF000791F8A1F911DA11D6A0F711D811D911DC5
:103C0000A11D20D009F468943F912AE0269F112439
:103C10003019305D3193DEF6CF010895462F47709D
:103C2000405D4193B3E00FD0C9F7F6CF462F4F70F8
:103C3000405D4A3318F0495D31FD4052419302D056
:103C4000A9F7EACFB4E0A6959795879577956795FC
:103C5000BA95C9F700976105710508959B01AC01FC
:103C60000A2E06945795479537952795BA95C9F723
:103C7000620F731F841F951FA01D0895F894FFCF36
:103C8000000A020607207D8025000003000125644C
:103C90000054656D70657261747572653A202534E3
:103CA0006420430054656D70657261747572653A85
:103CB00020253464204600437269746963616C2076
:0A3CC00054656D703A202564200061
:00000001FF
